{
	"data": {
		"bytecode": {
			"linkReferences": {},
			"object": "6080604052348015600e575f80fd5b50610f4c8061001c5f395ff3fe608060405234801561000f575f80fd5b506004361061011f575f3560e01c80638fda356d116100ab578063bca353be1161006f578063bca353be146102f6578063c19d93fb14610300578063cb6a33f81461031e578063db5ecc031461034e578063e0819c9a1461037e5761011f565b80638fda356d146102655780639e7a13ad1461026f578063a621d15e146102a0578063a7e1a364146102be578063b6339418146102da5761011f565b80633a32b549116100f25780633a32b549146101bf5780636ef7b0a9146101dd5780636f760f41146101fb5780638701f8ca146102175780638bab8dd5146102355761011f565b80630cd2636e146101235780631db05a881461014157806322f3e2d41461017157806329cd1d961461018f575b5f80fd5b61012b61039c565b6040516101389190610780565b60405180910390f35b61015b600480360381019061015691906107d4565b6103d8565b6040516101689190610780565b60405180910390f35b6101796103f2565b6040516101869190610819565b60405180910390f35b6101a960048036038101906101a491906107d4565b61042d565b6040516101b69190610780565b60405180910390f35b6101c761044d565b6040516101d491906108a2565b60405180910390f35b6101e561046d565b6040516101f29190610780565b60405180910390f35b610215600480360381019061021091906109ee565b610473565b005b61021f61049a565b60405161022c91906108a2565b60405180910390f35b61024f600480360381019061024a9190610a48565b6104a9565b60405161025c9190610780565b60405180910390f35b61026d6104d6565b005b610289600480360381019061028491906107d4565b610501565b604051610297929190610a8f565b60405180910390f35b6102a86105b6565b6040516102b59190610780565b60405180910390f35b6102d860048036038101906102d391906107d4565b6105be565b005b6102f460048036038101906102ef91906107d4565b6105e7565b005b6102fe610629565b005b610308610655565b6040516103159190610b30565b60405180910390f35b610338600480360381019061033391906107d4565b610667565b6040516103459190610819565b60405180910390f35b61036860048036038101906103639190610ba6565b610683565b60405161037591906108a2565b60405180910390f35b6103866106b4565b60405161039391906108a2565b60405180910390f35b5f805f90505f600190505b5f5481116103d05780826103bb9190610c1e565b915080806103c890610c51565b9150506103a7565b508091505090565b5f80600a836103e79190610c1e565b905080915050919050565b5f80600181111561040657610405610abd565b5b60045f9054906101000a900460ff16600181111561042757610426610abd565b5b14905090565b6001818154811061043c575f80fd5b905f5260205f20015f915090505481565b6060604051806060016040528060258152602001610ef260259139905090565b60025481565b806005836040516104849190610cd2565b9081526020016040518091039020819055505050565b60606104a461072b565b905090565b6005818051602081018201805184825260208301602085012081835280955050505050505f915090505481565b5f60045f6101000a81548160ff021916908360018111156104fa576104f9610abd565b5b0217905550565b60038181548110610510575f80fd5b905f5260205f2090600202015f91509050805f01805461052f90610d15565b80601f016020809104026020016040519081016040528092919081815260200182805461055b90610d15565b80156105a65780601f1061057d576101008083540402835291602001916105a6565b820191905f5260205f20905b81548152906001019060200180831161058957829003601f168201915b5050505050908060010154905082565b5f8054905090565b600181908060018154018082558091505060019003905f5260205f20015f909190919091505550565b805f819055507fe5f28171f43fc54876f02589c23cc70d19e06f868cc3811c456e8c61c296a27e813360405161061e929190610d84565b60405180910390a150565b600160045f6101000a81548160ff0219169083600181111561064e5761064d610abd565b5b0217905550565b60045f9054906101000a900460ff1681565b5f815f54111561067a576001905061067e565b5f90505b919050565b60605f8383604051602001610699929190610e19565b60405160208183030381529060405290508091505092915050565b60603073ffffffffffffffffffffffffffffffffffffffff16633a32b5496040518163ffffffff1660e01b81526004015f60405180830381865afa1580156106fe573d5f803e3d5ffd5b505050506040513d5f823e3d601f19601f820116820180604052508101906107269190610eaa565b905090565b60606040518060400160405280601581526020017f4920616d206c656172696e6720736f6c69646974790000000000000000000000815250905090565b5f819050919050565b61077a81610768565b82525050565b5f6020820190506107935f830184610771565b92915050565b5f604051905090565b5f80fd5b5f80fd5b6107b381610768565b81146107bd575f80fd5b50565b5f813590506107ce816107aa565b92915050565b5f602082840312156107e9576107e86107a2565b5b5f6107f6848285016107c0565b91505092915050565b5f8115159050919050565b610813816107ff565b82525050565b5f60208201905061082c5f83018461080a565b92915050565b5f81519050919050565b5f82825260208201905092915050565b8281835e5f83830152505050565b5f601f19601f8301169050919050565b5f61087482610832565b61087e818561083c565b935061088e81856020860161084c565b6108978161085a565b840191505092915050565b5f6020820190508181035f8301526108ba818461086a565b905092915050565b5f80fd5b5f80fd5b7f4e487b71000000000000000000000000000000000000000000000000000000005f52604160045260245ffd5b6109008261085a565b810181811067ffffffffffffffff8211171561091f5761091e6108ca565b5b80604052505050565b5f610931610799565b905061093d82826108f7565b919050565b5f67ffffffffffffffff82111561095c5761095b6108ca565b5b6109658261085a565b9050602081019050919050565b828183375f83830152505050565b5f61099261098d84610942565b610928565b9050828152602081018484840111156109ae576109ad6108c6565b5b6109b9848285610972565b509392505050565b5f82601f8301126109d5576109d46108c2565b5b81356109e5848260208601610980565b91505092915050565b5f8060408385031215610a0457610a036107a2565b5b5f83013567ffffffffffffffff811115610a2157610a206107a6565b5b610a2d858286016109c1565b9250506020610a3e858286016107c0565b9150509250929050565b5f60208284031215610a5d57610a5c6107a2565b5b5f82013567ffffffffffffffff811115610a7a57610a796107a6565b5b610a86848285016109c1565b91505092915050565b5f6040820190508181035f830152610aa7818561086a565b9050610ab66020830184610771565b9392505050565b7f4e487b71000000000000000000000000000000000000000000000000000000005f52602160045260245ffd5b60028110610afb57610afa610abd565b5b50565b5f819050610b0b82610aea565b919050565b5f610b1a82610afe565b9050919050565b610b2a81610b10565b82525050565b5f602082019050610b435f830184610b21565b92915050565b5f80fd5b5f80fd5b5f8083601f840112610b6657610b656108c2565b5b8235905067ffffffffffffffff811115610b8357610b82610b49565b5b602083019150836001820283011115610b9f57610b9e610b4d565b5b9250929050565b5f8060208385031215610bbc57610bbb6107a2565b5b5f83013567ffffffffffffffff811115610bd957610bd86107a6565b5b610be585828601610b51565b92509250509250929050565b7f4e487b71000000000000000000000000000000000000000000000000000000005f52601160045260245ffd5b5f610c2882610768565b9150610c3383610768565b9250828201905080821115610c4b57610c4a610bf1565b5b92915050565b5f610c5b82610768565b91507fffffffffffffffffffffffffffffffffffffffffffffffffffffffffffffffff8203610c8d57610c8c610bf1565b5b600182019050919050565b5f81905092915050565b5f610cac82610832565b610cb68185610c98565b9350610cc681856020860161084c565b80840191505092915050565b5f610cdd8284610ca2565b915081905092915050565b7f4e487b71000000000000000000000000000000000000000000000000000000005f52602260045260245ffd5b5f6002820490506001821680610d2c57607f821691505b602082108103610d3f57610d3e610ce8565b5b50919050565b5f73ffffffffffffffffffffffffffffffffffffffff82169050919050565b5f610d6e82610d45565b9050919050565b610d7e81610d64565b82525050565b5f604082019050610d975f830185610771565b610da46020830184610d75565b9392505050565b7f48656c6c6f2000000000000000000000000000000000000000000000000000005f82015250565b5f610ddf600683610c98565b9150610dea82610dab565b600682019050919050565b5f610e008385610c98565b9350610e0d838584610972565b82840190509392505050565b5f610e2382610dd3565b9150610e30828486610df5565b91508190509392505050565b5f610e4e610e4984610942565b610928565b905082815260208101848484011115610e6a57610e696108c6565b5b610e7584828561084c565b509392505050565b5f82601f830112610e9157610e906108c2565b5b8151610ea1848260208601610e3c565b91505092915050565b5f60208284031215610ebf57610ebe6107a2565b5b5f82015167ffffffffffffffff811115610edc57610edb6107a6565b5b610ee884828501610e7d565b9150509291505056fe546869732066756e6374696f6e20697320616e2065787465726e616c2066756e6374696f6ea26469706673582212205713c8dd773c963cf38d767a6de0449e8a5243d1c7da1a30fcb9990d2d79cfea64736f6c63430008190033",
			"opcodes": "PUSH1 0x80 PUSH1 0x40 MSTORE CALLVALUE DUP1 ISZERO PUSH1 0xE JUMPI PUSH0 DUP1 REVERT JUMPDEST POP PUSH2 0xF4C DUP1 PUSH2 0x1C PUSH0 CODECOPY PUSH0 RETURN INVALID PUSH1 0x80 PUSH1 0x40 MSTORE CALLVALUE DUP1 ISZERO PUSH2 0xF JUMPI PUSH0 DUP1 REVERT JUMPDEST POP PUSH1 0x4 CALLDATASIZE LT PUSH2 0x11F JUMPI PUSH0 CALLDATALOAD PUSH1 0xE0 SHR DUP1 PUSH4 0x8FDA356D GT PUSH2 0xAB JUMPI DUP1 PUSH4 0xBCA353BE GT PUSH2 0x6F JUMPI DUP1 PUSH4 0xBCA353BE EQ PUSH2 0x2F6 JUMPI DUP1 PUSH4 0xC19D93FB EQ PUSH2 0x300 JUMPI DUP1 PUSH4 0xCB6A33F8 EQ PUSH2 0x31E JUMPI DUP1 PUSH4 0xDB5ECC03 EQ PUSH2 0x34E JUMPI DUP1 PUSH4 0xE0819C9A EQ PUSH2 0x37E JUMPI PUSH2 0x11F JUMP JUMPDEST DUP1 PUSH4 0x8FDA356D EQ PUSH2 0x265 JUMPI DUP1 PUSH4 0x9E7A13AD EQ PUSH2 0x26F JUMPI DUP1 PUSH4 0xA621D15E EQ PUSH2 0x2A0 JUMPI DUP1 PUSH4 0xA7E1A364 EQ PUSH2 0x2BE JUMPI DUP1 PUSH4 0xB6339418 EQ PUSH2 0x2DA JUMPI PUSH2 0x11F JUMP JUMPDEST DUP1 PUSH4 0x3A32B549 GT PUSH2 0xF2 JUMPI DUP1 PUSH4 0x3A32B549 EQ PUSH2 0x1BF JUMPI DUP1 PUSH4 0x6EF7B0A9 EQ PUSH2 0x1DD JUMPI DUP1 PUSH4 0x6F760F41 EQ PUSH2 0x1FB JUMPI DUP1 PUSH4 0x8701F8CA EQ PUSH2 0x217 JUMPI DUP1 PUSH4 0x8BAB8DD5 EQ PUSH2 0x235 JUMPI PUSH2 0x11F JUMP JUMPDEST DUP1 PUSH4 0xCD2636E EQ PUSH2 0x123 JUMPI DUP1 PUSH4 0x1DB05A88 EQ PUSH2 0x141 JUMPI DUP1 PUSH4 0x22F3E2D4 EQ PUSH2 0x171 JUMPI DUP1 PUSH4 0x29CD1D96 EQ PUSH2 0x18F JUMPI JUMPDEST PUSH0 DUP1 REVERT JUMPDEST PUSH2 0x12B PUSH2 0x39C JUMP JUMPDEST PUSH1 0x40 MLOAD PUSH2 0x138 SWAP2 SWAP1 PUSH2 0x780 JUMP JUMPDEST PUSH1 0x40 MLOAD DUP1 SWAP2 SUB SWAP1 RETURN JUMPDEST PUSH2 0x15B PUSH1 0x4 DUP1 CALLDATASIZE SUB DUP2 ADD SWAP1 PUSH2 0x156 SWAP2 SWAP1 PUSH2 0x7D4 JUMP JUMPDEST PUSH2 0x3D8 JUMP JUMPDEST PUSH1 0x40 MLOAD PUSH2 0x168 SWAP2 SWAP1 PUSH2 0x780 JUMP JUMPDEST PUSH1 0x40 MLOAD DUP1 SWAP2 SUB SWAP1 RETURN JUMPDEST PUSH2 0x179 PUSH2 0x3F2 JUMP JUMPDEST PUSH1 0x40 MLOAD PUSH2 0x186 SWAP2 SWAP1 PUSH2 0x819 JUMP JUMPDEST PUSH1 0x40 MLOAD DUP1 SWAP2 SUB SWAP1 RETURN JUMPDEST PUSH2 0x1A9 PUSH1 0x4 DUP1 CALLDATASIZE SUB DUP2 ADD SWAP1 PUSH2 0x1A4 SWAP2 SWAP1 PUSH2 0x7D4 JUMP JUMPDEST PUSH2 0x42D JUMP JUMPDEST PUSH1 0x40 MLOAD PUSH2 0x1B6 SWAP2 SWAP1 PUSH2 0x780 JUMP JUMPDEST PUSH1 0x40 MLOAD DUP1 SWAP2 SUB SWAP1 RETURN JUMPDEST PUSH2 0x1C7 PUSH2 0x44D JUMP JUMPDEST PUSH1 0x40 MLOAD PUSH2 0x1D4 SWAP2 SWAP1 PUSH2 0x8A2 JUMP JUMPDEST PUSH1 0x40 MLOAD DUP1 SWAP2 SUB SWAP1 RETURN JUMPDEST PUSH2 0x1E5 PUSH2 0x46D JUMP JUMPDEST PUSH1 0x40 MLOAD PUSH2 0x1F2 SWAP2 SWAP1 PUSH2 0x780 JUMP JUMPDEST PUSH1 0x40 MLOAD DUP1 SWAP2 SUB SWAP1 RETURN JUMPDEST PUSH2 0x215 PUSH1 0x4 DUP1 CALLDATASIZE SUB DUP2 ADD SWAP1 PUSH2 0x210 SWAP2 SWAP1 PUSH2 0x9EE JUMP JUMPDEST PUSH2 0x473 JUMP JUMPDEST STOP JUMPDEST PUSH2 0x21F PUSH2 0x49A JUMP JUMPDEST PUSH1 0x40 MLOAD PUSH2 0x22C SWAP2 SWAP1 PUSH2 0x8A2 JUMP JUMPDEST PUSH1 0x40 MLOAD DUP1 SWAP2 SUB SWAP1 RETURN JUMPDEST PUSH2 0x24F PUSH1 0x4 DUP1 CALLDATASIZE SUB DUP2 ADD SWAP1 PUSH2 0x24A SWAP2 SWAP1 PUSH2 0xA48 JUMP JUMPDEST PUSH2 0x4A9 JUMP JUMPDEST PUSH1 0x40 MLOAD PUSH2 0x25C SWAP2 SWAP1 PUSH2 0x780 JUMP JUMPDEST PUSH1 0x40 MLOAD DUP1 SWAP2 SUB SWAP1 RETURN JUMPDEST PUSH2 0x26D PUSH2 0x4D6 JUMP JUMPDEST STOP JUMPDEST PUSH2 0x289 PUSH1 0x4 DUP1 CALLDATASIZE SUB DUP2 ADD SWAP1 PUSH2 0x284 SWAP2 SWAP1 PUSH2 0x7D4 JUMP JUMPDEST PUSH2 0x501 JUMP JUMPDEST PUSH1 0x40 MLOAD PUSH2 0x297 SWAP3 SWAP2 SWAP1 PUSH2 0xA8F JUMP JUMPDEST PUSH1 0x40 MLOAD DUP1 SWAP2 SUB SWAP1 RETURN JUMPDEST PUSH2 0x2A8 PUSH2 0x5B6 JUMP JUMPDEST PUSH1 0x40 MLOAD PUSH2 0x2B5 SWAP2 SWAP1 PUSH2 0x780 JUMP JUMPDEST PUSH1 0x40 MLOAD DUP1 SWAP2 SUB SWAP1 RETURN JUMPDEST PUSH2 0x2D8 PUSH1 0x4 DUP1 CALLDATASIZE SUB DUP2 ADD SWAP1 PUSH2 0x2D3 SWAP2 SWAP1 PUSH2 0x7D4 JUMP JUMPDEST PUSH2 0x5BE JUMP JUMPDEST STOP JUMPDEST PUSH2 0x2F4 PUSH1 0x4 DUP1 CALLDATASIZE SUB DUP2 ADD SWAP1 PUSH2 0x2EF SWAP2 SWAP1 PUSH2 0x7D4 JUMP JUMPDEST PUSH2 0x5E7 JUMP JUMPDEST STOP JUMPDEST PUSH2 0x2FE PUSH2 0x629 JUMP JUMPDEST STOP JUMPDEST PUSH2 0x308 PUSH2 0x655 JUMP JUMPDEST PUSH1 0x40 MLOAD PUSH2 0x315 SWAP2 SWAP1 PUSH2 0xB30 JUMP JUMPDEST PUSH1 0x40 MLOAD DUP1 SWAP2 SUB SWAP1 RETURN JUMPDEST PUSH2 0x338 PUSH1 0x4 DUP1 CALLDATASIZE SUB DUP2 ADD SWAP1 PUSH2 0x333 SWAP2 SWAP1 PUSH2 0x7D4 JUMP JUMPDEST PUSH2 0x667 JUMP JUMPDEST PUSH1 0x40 MLOAD PUSH2 0x345 SWAP2 SWAP1 PUSH2 0x819 JUMP JUMPDEST PUSH1 0x40 MLOAD DUP1 SWAP2 SUB SWAP1 RETURN JUMPDEST PUSH2 0x368 PUSH1 0x4 DUP1 CALLDATASIZE SUB DUP2 ADD SWAP1 PUSH2 0x363 SWAP2 SWAP1 PUSH2 0xBA6 JUMP JUMPDEST PUSH2 0x683 JUMP JUMPDEST PUSH1 0x40 MLOAD PUSH2 0x375 SWAP2 SWAP1 PUSH2 0x8A2 JUMP JUMPDEST PUSH1 0x40 MLOAD DUP1 SWAP2 SUB SWAP1 RETURN JUMPDEST PUSH2 0x386 PUSH2 0x6B4 JUMP JUMPDEST PUSH1 0x40 MLOAD PUSH2 0x393 SWAP2 SWAP1 PUSH2 0x8A2 JUMP JUMPDEST PUSH1 0x40 MLOAD DUP1 SWAP2 SUB SWAP1 RETURN JUMPDEST PUSH0 DUP1 PUSH0 SWAP1 POP PUSH0 PUSH1 0x1 SWAP1 POP JUMPDEST PUSH0 SLOAD DUP2 GT PUSH2 0x3D0 JUMPI DUP1 DUP3 PUSH2 0x3BB SWAP2 SWAP1 PUSH2 0xC1E JUMP JUMPDEST SWAP2 POP DUP1 DUP1 PUSH2 0x3C8 SWAP1 PUSH2 0xC51 JUMP JUMPDEST SWAP2 POP POP PUSH2 0x3A7 JUMP JUMPDEST POP DUP1 SWAP2 POP POP SWAP1 JUMP JUMPDEST PUSH0 DUP1 PUSH1 0xA DUP4 PUSH2 0x3E7 SWAP2 SWAP1 PUSH2 0xC1E JUMP JUMPDEST SWAP1 POP DUP1 SWAP2 POP POP SWAP2 SWAP1 POP JUMP JUMPDEST PUSH0 DUP1 PUSH1 0x1 DUP2 GT ISZERO PUSH2 0x406 JUMPI PUSH2 0x405 PUSH2 0xABD JUMP JUMPDEST JUMPDEST PUSH1 0x4 PUSH0 SWAP1 SLOAD SWAP1 PUSH2 0x100 EXP SWAP1 DIV PUSH1 0xFF AND PUSH1 0x1 DUP2 GT ISZERO PUSH2 0x427 JUMPI PUSH2 0x426 PUSH2 0xABD JUMP JUMPDEST JUMPDEST EQ SWAP1 POP SWAP1 JUMP JUMPDEST PUSH1 0x1 DUP2 DUP2 SLOAD DUP2 LT PUSH2 0x43C JUMPI PUSH0 DUP1 REVERT JUMPDEST SWAP1 PUSH0 MSTORE PUSH1 0x20 PUSH0 KECCAK256 ADD PUSH0 SWAP2 POP SWAP1 POP SLOAD DUP2 JUMP JUMPDEST PUSH1 0x60 PUSH1 0x40 MLOAD DUP1 PUSH1 0x60 ADD PUSH1 0x40 MSTORE DUP1 PUSH1 0x25 DUP2 MSTORE PUSH1 0x20 ADD PUSH2 0xEF2 PUSH1 0x25 SWAP2 CODECOPY SWAP1 POP SWAP1 JUMP JUMPDEST PUSH1 0x2 SLOAD DUP2 JUMP JUMPDEST DUP1 PUSH1 0x5 DUP4 PUSH1 0x40 MLOAD PUSH2 0x484 SWAP2 SWAP1 PUSH2 0xCD2 JUMP JUMPDEST SWAP1 DUP2 MSTORE PUSH1 0x20 ADD PUSH1 0x40 MLOAD DUP1 SWAP2 SUB SWAP1 KECCAK256 DUP2 SWAP1 SSTORE POP POP POP JUMP JUMPDEST PUSH1 0x60 PUSH2 0x4A4 PUSH2 0x72B JUMP JUMPDEST SWAP1 POP SWAP1 JUMP JUMPDEST PUSH1 0x5 DUP2 DUP1 MLOAD PUSH1 0x20 DUP2 ADD DUP3 ADD DUP1 MLOAD DUP5 DUP3 MSTORE PUSH1 0x20 DUP4 ADD PUSH1 0x20 DUP6 ADD KECCAK256 DUP2 DUP4 MSTORE DUP1 SWAP6 POP POP POP POP POP POP PUSH0 SWAP2 POP SWAP1 POP SLOAD DUP2 JUMP JUMPDEST PUSH0 PUSH1 0x4 PUSH0 PUSH2 0x100 EXP DUP2 SLOAD DUP2 PUSH1 0xFF MUL NOT AND SWAP1 DUP4 PUSH1 0x1 DUP2 GT ISZERO PUSH2 0x4FA JUMPI PUSH2 0x4F9 PUSH2 0xABD JUMP JUMPDEST JUMPDEST MUL OR SWAP1 SSTORE POP JUMP JUMPDEST PUSH1 0x3 DUP2 DUP2 SLOAD DUP2 LT PUSH2 0x510 JUMPI PUSH0 DUP1 REVERT JUMPDEST SWAP1 PUSH0 MSTORE PUSH1 0x20 PUSH0 KECCAK256 SWAP1 PUSH1 0x2 MUL ADD PUSH0 SWAP2 POP SWAP1 POP DUP1 PUSH0 ADD DUP1 SLOAD PUSH2 0x52F SWAP1 PUSH2 0xD15 JUMP JUMPDEST DUP1 PUSH1 0x1F ADD PUSH1 0x20 DUP1 SWAP2 DIV MUL PUSH1 0x20 ADD PUSH1 0x40 MLOAD SWAP1 DUP2 ADD PUSH1 0x40 MSTORE DUP1 SWAP3 SWAP2 SWAP1 DUP2 DUP2 MSTORE PUSH1 0x20 ADD DUP3 DUP1 SLOAD PUSH2 0x55B SWAP1 PUSH2 0xD15 JUMP JUMPDEST DUP1 ISZERO PUSH2 0x5A6 JUMPI DUP1 PUSH1 0x1F LT PUSH2 0x57D JUMPI PUSH2 0x100 DUP1 DUP4 SLOAD DIV MUL DUP4 MSTORE SWAP2 PUSH1 0x20 ADD SWAP2 PUSH2 0x5A6 JUMP JUMPDEST DUP3 ADD SWAP2 SWAP1 PUSH0 MSTORE PUSH1 0x20 PUSH0 KECCAK256 SWAP1 JUMPDEST DUP2 SLOAD DUP2 MSTORE SWAP1 PUSH1 0x1 ADD SWAP1 PUSH1 0x20 ADD DUP1 DUP4 GT PUSH2 0x589 JUMPI DUP3 SWAP1 SUB PUSH1 0x1F AND DUP3 ADD SWAP2 JUMPDEST POP POP POP POP POP SWAP1 DUP1 PUSH1 0x1 ADD SLOAD SWAP1 POP DUP3 JUMP JUMPDEST PUSH0 DUP1 SLOAD SWAP1 POP SWAP1 JUMP JUMPDEST PUSH1 0x1 DUP2 SWAP1 DUP1 PUSH1 0x1 DUP2 SLOAD ADD DUP1 DUP3 SSTORE DUP1 SWAP2 POP POP PUSH1 0x1 SWAP1 SUB SWAP1 PUSH0 MSTORE PUSH1 0x20 PUSH0 KECCAK256 ADD PUSH0 SWAP1 SWAP2 SWAP1 SWAP2 SWAP1 SWAP2 POP SSTORE POP JUMP JUMPDEST DUP1 PUSH0 DUP2 SWAP1 SSTORE POP PUSH32 0xE5F28171F43FC54876F02589C23CC70D19E06F868CC3811C456E8C61C296A27E DUP2 CALLER PUSH1 0x40 MLOAD PUSH2 0x61E SWAP3 SWAP2 SWAP1 PUSH2 0xD84 JUMP JUMPDEST PUSH1 0x40 MLOAD DUP1 SWAP2 SUB SWAP1 LOG1 POP JUMP JUMPDEST PUSH1 0x1 PUSH1 0x4 PUSH0 PUSH2 0x100 EXP DUP2 SLOAD DUP2 PUSH1 0xFF MUL NOT AND SWAP1 DUP4 PUSH1 0x1 DUP2 GT ISZERO PUSH2 0x64E JUMPI PUSH2 0x64D PUSH2 0xABD JUMP JUMPDEST JUMPDEST MUL OR SWAP1 SSTORE POP JUMP JUMPDEST PUSH1 0x4 PUSH0 SWAP1 SLOAD SWAP1 PUSH2 0x100 EXP SWAP1 DIV PUSH1 0xFF AND DUP2 JUMP JUMPDEST PUSH0 DUP2 PUSH0 SLOAD GT ISZERO PUSH2 0x67A JUMPI PUSH1 0x1 SWAP1 POP PUSH2 0x67E JUMP JUMPDEST PUSH0 SWAP1 POP JUMPDEST SWAP2 SWAP1 POP JUMP JUMPDEST PUSH1 0x60 PUSH0 DUP4 DUP4 PUSH1 0x40 MLOAD PUSH1 0x20 ADD PUSH2 0x699 SWAP3 SWAP2 SWAP1 PUSH2 0xE19 JUMP JUMPDEST PUSH1 0x40 MLOAD PUSH1 0x20 DUP2 DUP4 SUB SUB DUP2 MSTORE SWAP1 PUSH1 0x40 MSTORE SWAP1 POP DUP1 SWAP2 POP POP SWAP3 SWAP2 POP POP JUMP JUMPDEST PUSH1 0x60 ADDRESS PUSH20 0xFFFFFFFFFFFFFFFFFFFFFFFFFFFFFFFFFFFFFFFF AND PUSH4 0x3A32B549 PUSH1 0x40 MLOAD DUP2 PUSH4 0xFFFFFFFF AND PUSH1 0xE0 SHL DUP2 MSTORE PUSH1 0x4 ADD PUSH0 PUSH1 0x40 MLOAD DUP1 DUP4 SUB DUP2 DUP7 GAS STATICCALL ISZERO DUP1 ISZERO PUSH2 0x6FE JUMPI RETURNDATASIZE PUSH0 DUP1 RETURNDATACOPY RETURNDATASIZE PUSH0 REVERT JUMPDEST POP POP POP POP PUSH1 0x40 MLOAD RETURNDATASIZE PUSH0 DUP3 RETURNDATACOPY RETURNDATASIZE PUSH1 0x1F NOT PUSH1 0x1F DUP3 ADD AND DUP3 ADD DUP1 PUSH1 0x40 MSTORE POP DUP2 ADD SWAP1 PUSH2 0x726 SWAP2 SWAP1 PUSH2 0xEAA JUMP JUMPDEST SWAP1 POP SWAP1 JUMP JUMPDEST PUSH1 0x60 PUSH1 0x40 MLOAD DUP1 PUSH1 0x40 ADD PUSH1 0x40 MSTORE DUP1 PUSH1 0x15 DUP2 MSTORE PUSH1 0x20 ADD PUSH32 0x4920616D206C656172696E6720736F6C69646974790000000000000000000000 DUP2 MSTORE POP SWAP1 POP SWAP1 JUMP JUMPDEST PUSH0 DUP2 SWAP1 POP SWAP2 SWAP1 POP JUMP JUMPDEST PUSH2 0x77A DUP2 PUSH2 0x768 JUMP JUMPDEST DUP3 MSTORE POP POP JUMP JUMPDEST PUSH0 PUSH1 0x20 DUP3 ADD SWAP1 POP PUSH2 0x793 PUSH0 DUP4 ADD DUP5 PUSH2 0x771 JUMP JUMPDEST SWAP3 SWAP2 POP POP JUMP JUMPDEST PUSH0 PUSH1 0x40 MLOAD SWAP1 POP SWAP1 JUMP JUMPDEST PUSH0 DUP1 REVERT JUMPDEST PUSH0 DUP1 REVERT JUMPDEST PUSH2 0x7B3 DUP2 PUSH2 0x768 JUMP JUMPDEST DUP2 EQ PUSH2 0x7BD JUMPI PUSH0 DUP1 REVERT JUMPDEST POP JUMP JUMPDEST PUSH0 DUP2 CALLDATALOAD SWAP1 POP PUSH2 0x7CE DUP2 PUSH2 0x7AA JUMP JUMPDEST SWAP3 SWAP2 POP POP JUMP JUMPDEST PUSH0 PUSH1 0x20 DUP3 DUP5 SUB SLT ISZERO PUSH2 0x7E9 JUMPI PUSH2 0x7E8 PUSH2 0x7A2 JUMP JUMPDEST JUMPDEST PUSH0 PUSH2 0x7F6 DUP5 DUP3 DUP6 ADD PUSH2 0x7C0 JUMP JUMPDEST SWAP2 POP POP SWAP3 SWAP2 POP POP JUMP JUMPDEST PUSH0 DUP2 ISZERO ISZERO SWAP1 POP SWAP2 SWAP1 POP JUMP JUMPDEST PUSH2 0x813 DUP2 PUSH2 0x7FF JUMP JUMPDEST DUP3 MSTORE POP POP JUMP JUMPDEST PUSH0 PUSH1 0x20 DUP3 ADD SWAP1 POP PUSH2 0x82C PUSH0 DUP4 ADD DUP5 PUSH2 0x80A JUMP JUMPDEST SWAP3 SWAP2 POP POP JUMP JUMPDEST PUSH0 DUP2 MLOAD SWAP1 POP SWAP2 SWAP1 POP JUMP JUMPDEST PUSH0 DUP3 DUP3 MSTORE PUSH1 0x20 DUP3 ADD SWAP1 POP SWAP3 SWAP2 POP POP JUMP JUMPDEST DUP3 DUP2 DUP4 MCOPY PUSH0 DUP4 DUP4 ADD MSTORE POP POP POP JUMP JUMPDEST PUSH0 PUSH1 0x1F NOT PUSH1 0x1F DUP4 ADD AND SWAP1 POP SWAP2 SWAP1 POP JUMP JUMPDEST PUSH0 PUSH2 0x874 DUP3 PUSH2 0x832 JUMP JUMPDEST PUSH2 0x87E DUP2 DUP6 PUSH2 0x83C JUMP JUMPDEST SWAP4 POP PUSH2 0x88E DUP2 DUP6 PUSH1 0x20 DUP7 ADD PUSH2 0x84C JUMP JUMPDEST PUSH2 0x897 DUP2 PUSH2 0x85A JUMP JUMPDEST DUP5 ADD SWAP2 POP POP SWAP3 SWAP2 POP POP JUMP JUMPDEST PUSH0 PUSH1 0x20 DUP3 ADD SWAP1 POP DUP2 DUP2 SUB PUSH0 DUP4 ADD MSTORE PUSH2 0x8BA DUP2 DUP5 PUSH2 0x86A JUMP JUMPDEST SWAP1 POP SWAP3 SWAP2 POP POP JUMP JUMPDEST PUSH0 DUP1 REVERT JUMPDEST PUSH0 DUP1 REVERT JUMPDEST PUSH32 0x4E487B7100000000000000000000000000000000000000000000000000000000 PUSH0 MSTORE PUSH1 0x41 PUSH1 0x4 MSTORE PUSH1 0x24 PUSH0 REVERT JUMPDEST PUSH2 0x900 DUP3 PUSH2 0x85A JUMP JUMPDEST DUP2 ADD DUP2 DUP2 LT PUSH8 0xFFFFFFFFFFFFFFFF DUP3 GT OR ISZERO PUSH2 0x91F JUMPI PUSH2 0x91E PUSH2 0x8CA JUMP JUMPDEST JUMPDEST DUP1 PUSH1 0x40 MSTORE POP POP POP JUMP JUMPDEST PUSH0 PUSH2 0x931 PUSH2 0x799 JUMP JUMPDEST SWAP1 POP PUSH2 0x93D DUP3 DUP3 PUSH2 0x8F7 JUMP JUMPDEST SWAP2 SWAP1 POP JUMP JUMPDEST PUSH0 PUSH8 0xFFFFFFFFFFFFFFFF DUP3 GT ISZERO PUSH2 0x95C JUMPI PUSH2 0x95B PUSH2 0x8CA JUMP JUMPDEST JUMPDEST PUSH2 0x965 DUP3 PUSH2 0x85A JUMP JUMPDEST SWAP1 POP PUSH1 0x20 DUP2 ADD SWAP1 POP SWAP2 SWAP1 POP JUMP JUMPDEST DUP3 DUP2 DUP4 CALLDATACOPY PUSH0 DUP4 DUP4 ADD MSTORE POP POP POP JUMP JUMPDEST PUSH0 PUSH2 0x992 PUSH2 0x98D DUP5 PUSH2 0x942 JUMP JUMPDEST PUSH2 0x928 JUMP JUMPDEST SWAP1 POP DUP3 DUP2 MSTORE PUSH1 0x20 DUP2 ADD DUP5 DUP5 DUP5 ADD GT ISZERO PUSH2 0x9AE JUMPI PUSH2 0x9AD PUSH2 0x8C6 JUMP JUMPDEST JUMPDEST PUSH2 0x9B9 DUP5 DUP3 DUP6 PUSH2 0x972 JUMP JUMPDEST POP SWAP4 SWAP3 POP POP POP JUMP JUMPDEST PUSH0 DUP3 PUSH1 0x1F DUP4 ADD SLT PUSH2 0x9D5 JUMPI PUSH2 0x9D4 PUSH2 0x8C2 JUMP JUMPDEST JUMPDEST DUP2 CALLDATALOAD PUSH2 0x9E5 DUP5 DUP3 PUSH1 0x20 DUP7 ADD PUSH2 0x980 JUMP JUMPDEST SWAP2 POP POP SWAP3 SWAP2 POP POP JUMP JUMPDEST PUSH0 DUP1 PUSH1 0x40 DUP4 DUP6 SUB SLT ISZERO PUSH2 0xA04 JUMPI PUSH2 0xA03 PUSH2 0x7A2 JUMP JUMPDEST JUMPDEST PUSH0 DUP4 ADD CALLDATALOAD PUSH8 0xFFFFFFFFFFFFFFFF DUP2 GT ISZERO PUSH2 0xA21 JUMPI PUSH2 0xA20 PUSH2 0x7A6 JUMP JUMPDEST JUMPDEST PUSH2 0xA2D DUP6 DUP3 DUP7 ADD PUSH2 0x9C1 JUMP JUMPDEST SWAP3 POP POP PUSH1 0x20 PUSH2 0xA3E DUP6 DUP3 DUP7 ADD PUSH2 0x7C0 JUMP JUMPDEST SWAP2 POP POP SWAP3 POP SWAP3 SWAP1 POP JUMP JUMPDEST PUSH0 PUSH1 0x20 DUP3 DUP5 SUB SLT ISZERO PUSH2 0xA5D JUMPI PUSH2 0xA5C PUSH2 0x7A2 JUMP JUMPDEST JUMPDEST PUSH0 DUP3 ADD CALLDATALOAD PUSH8 0xFFFFFFFFFFFFFFFF DUP2 GT ISZERO PUSH2 0xA7A JUMPI PUSH2 0xA79 PUSH2 0x7A6 JUMP JUMPDEST JUMPDEST PUSH2 0xA86 DUP5 DUP3 DUP6 ADD PUSH2 0x9C1 JUMP JUMPDEST SWAP2 POP POP SWAP3 SWAP2 POP POP JUMP JUMPDEST PUSH0 PUSH1 0x40 DUP3 ADD SWAP1 POP DUP2 DUP2 SUB PUSH0 DUP4 ADD MSTORE PUSH2 0xAA7 DUP2 DUP6 PUSH2 0x86A JUMP JUMPDEST SWAP1 POP PUSH2 0xAB6 PUSH1 0x20 DUP4 ADD DUP5 PUSH2 0x771 JUMP JUMPDEST SWAP4 SWAP3 POP POP POP JUMP JUMPDEST PUSH32 0x4E487B7100000000000000000000000000000000000000000000000000000000 PUSH0 MSTORE PUSH1 0x21 PUSH1 0x4 MSTORE PUSH1 0x24 PUSH0 REVERT JUMPDEST PUSH1 0x2 DUP2 LT PUSH2 0xAFB JUMPI PUSH2 0xAFA PUSH2 0xABD JUMP JUMPDEST JUMPDEST POP JUMP JUMPDEST PUSH0 DUP2 SWAP1 POP PUSH2 0xB0B DUP3 PUSH2 0xAEA JUMP JUMPDEST SWAP2 SWAP1 POP JUMP JUMPDEST PUSH0 PUSH2 0xB1A DUP3 PUSH2 0xAFE JUMP JUMPDEST SWAP1 POP SWAP2 SWAP1 POP JUMP JUMPDEST PUSH2 0xB2A DUP2 PUSH2 0xB10 JUMP JUMPDEST DUP3 MSTORE POP POP JUMP JUMPDEST PUSH0 PUSH1 0x20 DUP3 ADD SWAP1 POP PUSH2 0xB43 PUSH0 DUP4 ADD DUP5 PUSH2 0xB21 JUMP JUMPDEST SWAP3 SWAP2 POP POP JUMP JUMPDEST PUSH0 DUP1 REVERT JUMPDEST PUSH0 DUP1 REVERT JUMPDEST PUSH0 DUP1 DUP4 PUSH1 0x1F DUP5 ADD SLT PUSH2 0xB66 JUMPI PUSH2 0xB65 PUSH2 0x8C2 JUMP JUMPDEST JUMPDEST DUP3 CALLDATALOAD SWAP1 POP PUSH8 0xFFFFFFFFFFFFFFFF DUP2 GT ISZERO PUSH2 0xB83 JUMPI PUSH2 0xB82 PUSH2 0xB49 JUMP JUMPDEST JUMPDEST PUSH1 0x20 DUP4 ADD SWAP2 POP DUP4 PUSH1 0x1 DUP3 MUL DUP4 ADD GT ISZERO PUSH2 0xB9F JUMPI PUSH2 0xB9E PUSH2 0xB4D JUMP JUMPDEST JUMPDEST SWAP3 POP SWAP3 SWAP1 POP JUMP JUMPDEST PUSH0 DUP1 PUSH1 0x20 DUP4 DUP6 SUB SLT ISZERO PUSH2 0xBBC JUMPI PUSH2 0xBBB PUSH2 0x7A2 JUMP JUMPDEST JUMPDEST PUSH0 DUP4 ADD CALLDATALOAD PUSH8 0xFFFFFFFFFFFFFFFF DUP2 GT ISZERO PUSH2 0xBD9 JUMPI PUSH2 0xBD8 PUSH2 0x7A6 JUMP JUMPDEST JUMPDEST PUSH2 0xBE5 DUP6 DUP3 DUP7 ADD PUSH2 0xB51 JUMP JUMPDEST SWAP3 POP SWAP3 POP POP SWAP3 POP SWAP3 SWAP1 POP JUMP JUMPDEST PUSH32 0x4E487B7100000000000000000000000000000000000000000000000000000000 PUSH0 MSTORE PUSH1 0x11 PUSH1 0x4 MSTORE PUSH1 0x24 PUSH0 REVERT JUMPDEST PUSH0 PUSH2 0xC28 DUP3 PUSH2 0x768 JUMP JUMPDEST SWAP2 POP PUSH2 0xC33 DUP4 PUSH2 0x768 JUMP JUMPDEST SWAP3 POP DUP3 DUP3 ADD SWAP1 POP DUP1 DUP3 GT ISZERO PUSH2 0xC4B JUMPI PUSH2 0xC4A PUSH2 0xBF1 JUMP JUMPDEST JUMPDEST SWAP3 SWAP2 POP POP JUMP JUMPDEST PUSH0 PUSH2 0xC5B DUP3 PUSH2 0x768 JUMP JUMPDEST SWAP2 POP PUSH32 0xFFFFFFFFFFFFFFFFFFFFFFFFFFFFFFFFFFFFFFFFFFFFFFFFFFFFFFFFFFFFFFFF DUP3 SUB PUSH2 0xC8D JUMPI PUSH2 0xC8C PUSH2 0xBF1 JUMP JUMPDEST JUMPDEST PUSH1 0x1 DUP3 ADD SWAP1 POP SWAP2 SWAP1 POP JUMP JUMPDEST PUSH0 DUP2 SWAP1 POP SWAP3 SWAP2 POP POP JUMP JUMPDEST PUSH0 PUSH2 0xCAC DUP3 PUSH2 0x832 JUMP JUMPDEST PUSH2 0xCB6 DUP2 DUP6 PUSH2 0xC98 JUMP JUMPDEST SWAP4 POP PUSH2 0xCC6 DUP2 DUP6 PUSH1 0x20 DUP7 ADD PUSH2 0x84C JUMP JUMPDEST DUP1 DUP5 ADD SWAP2 POP POP SWAP3 SWAP2 POP POP JUMP JUMPDEST PUSH0 PUSH2 0xCDD DUP3 DUP5 PUSH2 0xCA2 JUMP JUMPDEST SWAP2 POP DUP2 SWAP1 POP SWAP3 SWAP2 POP POP JUMP JUMPDEST PUSH32 0x4E487B7100000000000000000000000000000000000000000000000000000000 PUSH0 MSTORE PUSH1 0x22 PUSH1 0x4 MSTORE PUSH1 0x24 PUSH0 REVERT JUMPDEST PUSH0 PUSH1 0x2 DUP3 DIV SWAP1 POP PUSH1 0x1 DUP3 AND DUP1 PUSH2 0xD2C JUMPI PUSH1 0x7F DUP3 AND SWAP2 POP JUMPDEST PUSH1 0x20 DUP3 LT DUP2 SUB PUSH2 0xD3F JUMPI PUSH2 0xD3E PUSH2 0xCE8 JUMP JUMPDEST JUMPDEST POP SWAP2 SWAP1 POP JUMP JUMPDEST PUSH0 PUSH20 0xFFFFFFFFFFFFFFFFFFFFFFFFFFFFFFFFFFFFFFFF DUP3 AND SWAP1 POP SWAP2 SWAP1 POP JUMP JUMPDEST PUSH0 PUSH2 0xD6E DUP3 PUSH2 0xD45 JUMP JUMPDEST SWAP1 POP SWAP2 SWAP1 POP JUMP JUMPDEST PUSH2 0xD7E DUP2 PUSH2 0xD64 JUMP JUMPDEST DUP3 MSTORE POP POP JUMP JUMPDEST PUSH0 PUSH1 0x40 DUP3 ADD SWAP1 POP PUSH2 0xD97 PUSH0 DUP4 ADD DUP6 PUSH2 0x771 JUMP JUMPDEST PUSH2 0xDA4 PUSH1 0x20 DUP4 ADD DUP5 PUSH2 0xD75 JUMP JUMPDEST SWAP4 SWAP3 POP POP POP JUMP JUMPDEST PUSH32 0x48656C6C6F200000000000000000000000000000000000000000000000000000 PUSH0 DUP3 ADD MSTORE POP JUMP JUMPDEST PUSH0 PUSH2 0xDDF PUSH1 0x6 DUP4 PUSH2 0xC98 JUMP JUMPDEST SWAP2 POP PUSH2 0xDEA DUP3 PUSH2 0xDAB JUMP JUMPDEST PUSH1 0x6 DUP3 ADD SWAP1 POP SWAP2 SWAP1 POP JUMP JUMPDEST PUSH0 PUSH2 0xE00 DUP4 DUP6 PUSH2 0xC98 JUMP JUMPDEST SWAP4 POP PUSH2 0xE0D DUP4 DUP6 DUP5 PUSH2 0x972 JUMP JUMPDEST DUP3 DUP5 ADD SWAP1 POP SWAP4 SWAP3 POP POP POP JUMP JUMPDEST PUSH0 PUSH2 0xE23 DUP3 PUSH2 0xDD3 JUMP JUMPDEST SWAP2 POP PUSH2 0xE30 DUP3 DUP5 DUP7 PUSH2 0xDF5 JUMP JUMPDEST SWAP2 POP DUP2 SWAP1 POP SWAP4 SWAP3 POP POP POP JUMP JUMPDEST PUSH0 PUSH2 0xE4E PUSH2 0xE49 DUP5 PUSH2 0x942 JUMP JUMPDEST PUSH2 0x928 JUMP JUMPDEST SWAP1 POP DUP3 DUP2 MSTORE PUSH1 0x20 DUP2 ADD DUP5 DUP5 DUP5 ADD GT ISZERO PUSH2 0xE6A JUMPI PUSH2 0xE69 PUSH2 0x8C6 JUMP JUMPDEST JUMPDEST PUSH2 0xE75 DUP5 DUP3 DUP6 PUSH2 0x84C JUMP JUMPDEST POP SWAP4 SWAP3 POP POP POP JUMP JUMPDEST PUSH0 DUP3 PUSH1 0x1F DUP4 ADD SLT PUSH2 0xE91 JUMPI PUSH2 0xE90 PUSH2 0x8C2 JUMP JUMPDEST JUMPDEST DUP2 MLOAD PUSH2 0xEA1 DUP5 DUP3 PUSH1 0x20 DUP7 ADD PUSH2 0xE3C JUMP JUMPDEST SWAP2 POP POP SWAP3 SWAP2 POP POP JUMP JUMPDEST PUSH0 PUSH1 0x20 DUP3 DUP5 SUB SLT ISZERO PUSH2 0xEBF JUMPI PUSH2 0xEBE PUSH2 0x7A2 JUMP JUMPDEST JUMPDEST PUSH0 DUP3 ADD MLOAD PUSH8 0xFFFFFFFFFFFFFFFF DUP2 GT ISZERO PUSH2 0xEDC JUMPI PUSH2 0xEDB PUSH2 0x7A6 JUMP JUMPDEST JUMPDEST PUSH2 0xEE8 DUP5 DUP3 DUP6 ADD PUSH2 0xE7D JUMP JUMPDEST SWAP2 POP POP SWAP3 SWAP2 POP POP JUMP INVALID SLOAD PUSH9 0x69732066756E637469 PUSH16 0x6E20697320616E2065787465726E616C KECCAK256 PUSH7 0x756E6374696F6E LOG2 PUSH5 0x6970667358 0x22 SLT KECCAK256 JUMPI SGT 0xC8 0xDD PUSH24 0x3C963CF38D767A6DE0449E8A5243D1C7DA1A30FCB9990D2D PUSH26 0xCFEA64736F6C6343000819003300000000000000000000000000 "
		},
		"gasEstimates": {
			"creation": {
				"codeDepositCost": "783200",
				"executionCost": "816",
				"totalCost": "784016"
			},
			"external": {
				"activateContract()": "24451",
				"addFavoriteNumber(uint256)": "46910",
				"addPerson(string,uint256)": "infinite",
				"callInternalFunction()": "infinite",
				"deactivateContract()": "24451",
				"externalFunction()": "infinite",
				"favoriteNumbers(uint256)": "infinite",
				"getFavoriteNumber()": "2499",
				"greetUser(string)": "infinite",
				"isActive()": "2599",
				"isGreaterThan(uint256)": "2801",
				"nameToFavoriteNumber(string)": "infinite",
				"neverAFavoriteNumber()": "2470",
				"people(uint256)": "infinite",
				"state()": "2598",
				"storeNumber(uint256)": "infinite",
				"sumToFavoriteNumber()": "infinite",
				"testExternalFunction()": "infinite",
				"updateNumber(uint256)": "infinite"
			},
			"internal": {
				"internalFunction()": "infinite"
			}
		},
		"methodIdentifiers": {
			"activateContract()": "8fda356d",
			"addFavoriteNumber(uint256)": "a7e1a364",
			"addPerson(string,uint256)": "6f760f41",
			"callInternalFunction()": "8701f8ca",
			"deactivateContract()": "bca353be",
			"externalFunction()": "3a32b549",
			"favoriteNumbers(uint256)": "29cd1d96",
			"getFavoriteNumber()": "a621d15e",
			"greetUser(string)": "db5ecc03",
			"isActive()": "22f3e2d4",
			"isGreaterThan(uint256)": "cb6a33f8",
			"nameToFavoriteNumber(string)": "8bab8dd5",
			"neverAFavoriteNumber()": "6ef7b0a9",
			"people(uint256)": "9e7a13ad",
			"state()": "c19d93fb",
			"storeNumber(uint256)": "b6339418",
			"sumToFavoriteNumber()": "0cd2636e",
			"testExternalFunction()": "e0819c9a",
			"updateNumber(uint256)": "1db05a88"
		}
	},
	"abi": [
		{
			"anonymous": false,
			"inputs": [
				{
					"indexed": false,
					"internalType": "uint256",
					"name": "newNumber",
					"type": "uint256"
				},
				{
					"indexed": false,
					"internalType": "address",
					"name": "updatedBy",
					"type": "address"
				}
			],
			"name": "NumberUpdated",
			"type": "event"
		},
		{
			"inputs": [],
			"name": "activateContract",
			"outputs": [],
			"stateMutability": "nonpayable",
			"type": "function"
		},
		{
			"inputs": [
				{
					"internalType": "uint256",
					"name": "_number",
					"type": "uint256"
				}
			],
			"name": "addFavoriteNumber",
			"outputs": [],
			"stateMutability": "nonpayable",
			"type": "function"
		},
		{
			"inputs": [
				{
					"internalType": "string",
					"name": "_name",
					"type": "string"
				},
				{
					"internalType": "uint256",
					"name": "_favoriteNumber",
					"type": "uint256"
				}
			],
			"name": "addPerson",
			"outputs": [],
			"stateMutability": "nonpayable",
			"type": "function"
		},
		{
			"inputs": [],
			"name": "callInternalFunction",
			"outputs": [
				{
					"internalType": "string",
					"name": "",
					"type": "string"
				}
			],
			"stateMutability": "pure",
			"type": "function"
		},
		{
			"inputs": [],
			"name": "deactivateContract",
			"outputs": [],
			"stateMutability": "nonpayable",
			"type": "function"
		},
		{
			"inputs": [],
			"name": "externalFunction",
			"outputs": [
				{
					"internalType": "string",
					"name": "",
					"type": "string"
				}
			],
			"stateMutability": "pure",
			"type": "function"
		},
		{
			"inputs": [
				{
					"internalType": "uint256",
					"name": "",
					"type": "uint256"
				}
			],
			"name": "favoriteNumbers",
			"outputs": [
				{
					"internalType": "uint256",
					"name": "",
					"type": "uint256"
				}
			],
			"stateMutability": "view",
			"type": "function"
		},
		{
			"inputs": [],
			"name": "getFavoriteNumber",
			"outputs": [
				{
					"internalType": "uint256",
					"name": "",
					"type": "uint256"
				}
			],
			"stateMutability": "view",
			"type": "function"
		},
		{
			"inputs": [
				{
					"internalType": "string",
					"name": "_username",
					"type": "string"
				}
			],
			"name": "greetUser",
			"outputs": [
				{
					"internalType": "string",
					"name": "",
					"type": "string"
				}
			],
			"stateMutability": "pure",
			"type": "function"
		},
		{
			"inputs": [],
			"name": "isActive",
			"outputs": [
				{
					"internalType": "bool",
					"name": "",
					"type": "bool"
				}
			],
			"stateMutability": "view",
			"type": "function"
		},
		{
			"inputs": [
				{
					"internalType": "uint256",
					"name": "_compareValue",
					"type": "uint256"
				}
			],
			"name": "isGreaterThan",
			"outputs": [
				{
					"internalType": "bool",
					"name": "",
					"type": "bool"
				}
			],
			"stateMutability": "view",
			"type": "function"
		},
		{
			"inputs": [
				{
					"internalType": "string",
					"name": "",
					"type": "string"
				}
			],
			"name": "nameToFavoriteNumber",
			"outputs": [
				{
					"internalType": "uint256",
					"name": "",
					"type": "uint256"
				}
			],
			"stateMutability": "view",
			"type": "function"
		},
		{
			"inputs": [],
			"name": "neverAFavoriteNumber",
			"outputs": [
				{
					"internalType": "uint256",
					"name": "",
					"type": "uint256"
				}
			],
			"stateMutability": "view",
			"type": "function"
		},
		{
			"inputs": [
				{
					"internalType": "uint256",
					"name": "",
					"type": "uint256"
				}
			],
			"name": "people",
			"outputs": [
				{
					"internalType": "string",
					"name": "name",
					"type": "string"
				},
				{
					"internalType": "uint256",
					"name": "favoriteNumber",
					"type": "uint256"
				}
			],
			"stateMutability": "view",
			"type": "function"
		},
		{
			"inputs": [],
			"name": "state",
			"outputs": [
				{
					"internalType": "enum SimpleStorage.ContractState",
					"name": "",
					"type": "uint8"
				}
			],
			"stateMutability": "view",
			"type": "function"
		},
		{
			"inputs": [
				{
					"internalType": "uint256",
					"name": "_favoriteNumber",
					"type": "uint256"
				}
			],
			"name": "storeNumber",
			"outputs": [],
			"stateMutability": "nonpayable",
			"type": "function"
		},
		{
			"inputs": [],
			"name": "sumToFavoriteNumber",
			"outputs": [
				{
					"internalType": "uint256",
					"name": "",
					"type": "uint256"
				}
			],
			"stateMutability": "view",
			"type": "function"
		},
		{
			"inputs": [],
			"name": "testExternalFunction",
			"outputs": [
				{
					"internalType": "string",
					"name": "",
					"type": "string"
				}
			],
			"stateMutability": "view",
			"type": "function"
		},
		{
			"inputs": [
				{
					"internalType": "uint256",
					"name": "_newNumber",
					"type": "uint256"
				}
			],
			"name": "updateNumber",
			"outputs": [
				{
					"internalType": "uint256",
					"name": "",
					"type": "uint256"
				}
			],
			"stateMutability": "pure",
			"type": "function"
		}
	]
}