{
	"data": {
		"bytecode": {
			"linkReferences": {},
			"object": "6080604052348015600e575f80fd5b506106258061001c5f395ff3fe608060405234801561000f575f80fd5b5060043610610086575f3560e01c8063a621d15e11610059578063a621d15e14610127578063b633941814610145578063c19d93fb14610161578063cb6a33f81461017f57610086565b80630cd2636e1461008a57806329cd1d96146100a8578063471f7cdf146100d85780639e7a13ad146100f6575b5f80fd5b6100926101af565b60405161009f919061031c565b60405180910390f35b6100c260048036038101906100bd9190610363565b6101eb565b6040516100cf919061031c565b60405180910390f35b6100e061020b565b6040516100ed919061031c565b60405180910390f35b610110600480360381019061010b9190610363565b610210565b60405161011e9291906103fe565b60405180910390f35b61012f6102c5565b60405161013c919061031c565b60405180910390f35b61015f600480360381019061015a9190610363565b6102cd565b005b6101696102d6565b604051610176919061049f565b60405180910390f35b61019960048036038101906101949190610363565b6102e8565b6040516101a691906104d2565b60405180910390f35b5f805f90505f600190505b5f5481116101e35780826101ce9190610518565b915080806101db9061054b565b9150506101ba565b508091505090565b600181815481106101fa575f80fd5b905f5260205f20015f915090505481565b5f5481565b6002818154811061021f575f80fd5b905f5260205f2090600202015f91509050805f01805461023e906105bf565b80601f016020809104026020016040519081016040528092919081815260200182805461026a906105bf565b80156102b55780601f1061028c576101008083540402835291602001916102b5565b820191905f5260205f20905b81548152906001019060200180831161029857829003601f168201915b5050505050908060010154905082565b5f8054905090565b805f8190555050565b60035f9054906101000a900460ff1681565b5f815f5411156102fb57600190506102ff565b5f90505b919050565b5f819050919050565b61031681610304565b82525050565b5f60208201905061032f5f83018461030d565b92915050565b5f80fd5b61034281610304565b811461034c575f80fd5b50565b5f8135905061035d81610339565b92915050565b5f6020828403121561037857610377610335565b5b5f6103858482850161034f565b91505092915050565b5f81519050919050565b5f82825260208201905092915050565b8281835e5f83830152505050565b5f601f19601f8301169050919050565b5f6103d08261038e565b6103da8185610398565b93506103ea8185602086016103a8565b6103f3816103b6565b840191505092915050565b5f6040820190508181035f83015261041681856103c6565b9050610425602083018461030d565b9392505050565b7f4e487b71000000000000000000000000000000000000000000000000000000005f52602160045260245ffd5b6002811061046a5761046961042c565b5b50565b5f81905061047a82610459565b919050565b5f6104898261046d565b9050919050565b6104998161047f565b82525050565b5f6020820190506104b25f830184610490565b92915050565b5f8115159050919050565b6104cc816104b8565b82525050565b5f6020820190506104e55f8301846104c3565b92915050565b7f4e487b71000000000000000000000000000000000000000000000000000000005f52601160045260245ffd5b5f61052282610304565b915061052d83610304565b9250828201905080821115610545576105446104eb565b5b92915050565b5f61055582610304565b91507fffffffffffffffffffffffffffffffffffffffffffffffffffffffffffffffff8203610587576105866104eb565b5b600182019050919050565b7f4e487b71000000000000000000000000000000000000000000000000000000005f52602260045260245ffd5b5f60028204905060018216806105d657607f821691505b6020821081036105e9576105e8610592565b5b5091905056fea2646970667358221220fcf71bcd96f12a2f03315d5a5aa6726867c4a0bd42f1d90f202cbd61f20397ea64736f6c63430008190033",
			"opcodes": "PUSH1 0x80 PUSH1 0x40 MSTORE CALLVALUE DUP1 ISZERO PUSH1 0xE JUMPI PUSH0 DUP1 REVERT JUMPDEST POP PUSH2 0x625 DUP1 PUSH2 0x1C PUSH0 CODECOPY PUSH0 RETURN INVALID PUSH1 0x80 PUSH1 0x40 MSTORE CALLVALUE DUP1 ISZERO PUSH2 0xF JUMPI PUSH0 DUP1 REVERT JUMPDEST POP PUSH1 0x4 CALLDATASIZE LT PUSH2 0x86 JUMPI PUSH0 CALLDATALOAD PUSH1 0xE0 SHR DUP1 PUSH4 0xA621D15E GT PUSH2 0x59 JUMPI DUP1 PUSH4 0xA621D15E EQ PUSH2 0x127 JUMPI DUP1 PUSH4 0xB6339418 EQ PUSH2 0x145 JUMPI DUP1 PUSH4 0xC19D93FB EQ PUSH2 0x161 JUMPI DUP1 PUSH4 0xCB6A33F8 EQ PUSH2 0x17F JUMPI PUSH2 0x86 JUMP JUMPDEST DUP1 PUSH4 0xCD2636E EQ PUSH2 0x8A JUMPI DUP1 PUSH4 0x29CD1D96 EQ PUSH2 0xA8 JUMPI DUP1 PUSH4 0x471F7CDF EQ PUSH2 0xD8 JUMPI DUP1 PUSH4 0x9E7A13AD EQ PUSH2 0xF6 JUMPI JUMPDEST PUSH0 DUP1 REVERT JUMPDEST PUSH2 0x92 PUSH2 0x1AF JUMP JUMPDEST PUSH1 0x40 MLOAD PUSH2 0x9F SWAP2 SWAP1 PUSH2 0x31C JUMP JUMPDEST PUSH1 0x40 MLOAD DUP1 SWAP2 SUB SWAP1 RETURN JUMPDEST PUSH2 0xC2 PUSH1 0x4 DUP1 CALLDATASIZE SUB DUP2 ADD SWAP1 PUSH2 0xBD SWAP2 SWAP1 PUSH2 0x363 JUMP JUMPDEST PUSH2 0x1EB JUMP JUMPDEST PUSH1 0x40 MLOAD PUSH2 0xCF SWAP2 SWAP1 PUSH2 0x31C JUMP JUMPDEST PUSH1 0x40 MLOAD DUP1 SWAP2 SUB SWAP1 RETURN JUMPDEST PUSH2 0xE0 PUSH2 0x20B JUMP JUMPDEST PUSH1 0x40 MLOAD PUSH2 0xED SWAP2 SWAP1 PUSH2 0x31C JUMP JUMPDEST PUSH1 0x40 MLOAD DUP1 SWAP2 SUB SWAP1 RETURN JUMPDEST PUSH2 0x110 PUSH1 0x4 DUP1 CALLDATASIZE SUB DUP2 ADD SWAP1 PUSH2 0x10B SWAP2 SWAP1 PUSH2 0x363 JUMP JUMPDEST PUSH2 0x210 JUMP JUMPDEST PUSH1 0x40 MLOAD PUSH2 0x11E SWAP3 SWAP2 SWAP1 PUSH2 0x3FE JUMP JUMPDEST PUSH1 0x40 MLOAD DUP1 SWAP2 SUB SWAP1 RETURN JUMPDEST PUSH2 0x12F PUSH2 0x2C5 JUMP JUMPDEST PUSH1 0x40 MLOAD PUSH2 0x13C SWAP2 SWAP1 PUSH2 0x31C JUMP JUMPDEST PUSH1 0x40 MLOAD DUP1 SWAP2 SUB SWAP1 RETURN JUMPDEST PUSH2 0x15F PUSH1 0x4 DUP1 CALLDATASIZE SUB DUP2 ADD SWAP1 PUSH2 0x15A SWAP2 SWAP1 PUSH2 0x363 JUMP JUMPDEST PUSH2 0x2CD JUMP JUMPDEST STOP JUMPDEST PUSH2 0x169 PUSH2 0x2D6 JUMP JUMPDEST PUSH1 0x40 MLOAD PUSH2 0x176 SWAP2 SWAP1 PUSH2 0x49F JUMP JUMPDEST PUSH1 0x40 MLOAD DUP1 SWAP2 SUB SWAP1 RETURN JUMPDEST PUSH2 0x199 PUSH1 0x4 DUP1 CALLDATASIZE SUB DUP2 ADD SWAP1 PUSH2 0x194 SWAP2 SWAP1 PUSH2 0x363 JUMP JUMPDEST PUSH2 0x2E8 JUMP JUMPDEST PUSH1 0x40 MLOAD PUSH2 0x1A6 SWAP2 SWAP1 PUSH2 0x4D2 JUMP JUMPDEST PUSH1 0x40 MLOAD DUP1 SWAP2 SUB SWAP1 RETURN JUMPDEST PUSH0 DUP1 PUSH0 SWAP1 POP PUSH0 PUSH1 0x1 SWAP1 POP JUMPDEST PUSH0 SLOAD DUP2 GT PUSH2 0x1E3 JUMPI DUP1 DUP3 PUSH2 0x1CE SWAP2 SWAP1 PUSH2 0x518 JUMP JUMPDEST SWAP2 POP DUP1 DUP1 PUSH2 0x1DB SWAP1 PUSH2 0x54B JUMP JUMPDEST SWAP2 POP POP PUSH2 0x1BA JUMP JUMPDEST POP DUP1 SWAP2 POP POP SWAP1 JUMP JUMPDEST PUSH1 0x1 DUP2 DUP2 SLOAD DUP2 LT PUSH2 0x1FA JUMPI PUSH0 DUP1 REVERT JUMPDEST SWAP1 PUSH0 MSTORE PUSH1 0x20 PUSH0 KECCAK256 ADD PUSH0 SWAP2 POP SWAP1 POP SLOAD DUP2 JUMP JUMPDEST PUSH0 SLOAD DUP2 JUMP JUMPDEST PUSH1 0x2 DUP2 DUP2 SLOAD DUP2 LT PUSH2 0x21F JUMPI PUSH0 DUP1 REVERT JUMPDEST SWAP1 PUSH0 MSTORE PUSH1 0x20 PUSH0 KECCAK256 SWAP1 PUSH1 0x2 MUL ADD PUSH0 SWAP2 POP SWAP1 POP DUP1 PUSH0 ADD DUP1 SLOAD PUSH2 0x23E SWAP1 PUSH2 0x5BF JUMP JUMPDEST DUP1 PUSH1 0x1F ADD PUSH1 0x20 DUP1 SWAP2 DIV MUL PUSH1 0x20 ADD PUSH1 0x40 MLOAD SWAP1 DUP2 ADD PUSH1 0x40 MSTORE DUP1 SWAP3 SWAP2 SWAP1 DUP2 DUP2 MSTORE PUSH1 0x20 ADD DUP3 DUP1 SLOAD PUSH2 0x26A SWAP1 PUSH2 0x5BF JUMP JUMPDEST DUP1 ISZERO PUSH2 0x2B5 JUMPI DUP1 PUSH1 0x1F LT PUSH2 0x28C JUMPI PUSH2 0x100 DUP1 DUP4 SLOAD DIV MUL DUP4 MSTORE SWAP2 PUSH1 0x20 ADD SWAP2 PUSH2 0x2B5 JUMP JUMPDEST DUP3 ADD SWAP2 SWAP1 PUSH0 MSTORE PUSH1 0x20 PUSH0 KECCAK256 SWAP1 JUMPDEST DUP2 SLOAD DUP2 MSTORE SWAP1 PUSH1 0x1 ADD SWAP1 PUSH1 0x20 ADD DUP1 DUP4 GT PUSH2 0x298 JUMPI DUP3 SWAP1 SUB PUSH1 0x1F AND DUP3 ADD SWAP2 JUMPDEST POP POP POP POP POP SWAP1 DUP1 PUSH1 0x1 ADD SLOAD SWAP1 POP DUP3 JUMP JUMPDEST PUSH0 DUP1 SLOAD SWAP1 POP SWAP1 JUMP JUMPDEST DUP1 PUSH0 DUP2 SWAP1 SSTORE POP POP JUMP JUMPDEST PUSH1 0x3 PUSH0 SWAP1 SLOAD SWAP1 PUSH2 0x100 EXP SWAP1 DIV PUSH1 0xFF AND DUP2 JUMP JUMPDEST PUSH0 DUP2 PUSH0 SLOAD GT ISZERO PUSH2 0x2FB JUMPI PUSH1 0x1 SWAP1 POP PUSH2 0x2FF JUMP JUMPDEST PUSH0 SWAP1 POP JUMPDEST SWAP2 SWAP1 POP JUMP JUMPDEST PUSH0 DUP2 SWAP1 POP SWAP2 SWAP1 POP JUMP JUMPDEST PUSH2 0x316 DUP2 PUSH2 0x304 JUMP JUMPDEST DUP3 MSTORE POP POP JUMP JUMPDEST PUSH0 PUSH1 0x20 DUP3 ADD SWAP1 POP PUSH2 0x32F PUSH0 DUP4 ADD DUP5 PUSH2 0x30D JUMP JUMPDEST SWAP3 SWAP2 POP POP JUMP JUMPDEST PUSH0 DUP1 REVERT JUMPDEST PUSH2 0x342 DUP2 PUSH2 0x304 JUMP JUMPDEST DUP2 EQ PUSH2 0x34C JUMPI PUSH0 DUP1 REVERT JUMPDEST POP JUMP JUMPDEST PUSH0 DUP2 CALLDATALOAD SWAP1 POP PUSH2 0x35D DUP2 PUSH2 0x339 JUMP JUMPDEST SWAP3 SWAP2 POP POP JUMP JUMPDEST PUSH0 PUSH1 0x20 DUP3 DUP5 SUB SLT ISZERO PUSH2 0x378 JUMPI PUSH2 0x377 PUSH2 0x335 JUMP JUMPDEST JUMPDEST PUSH0 PUSH2 0x385 DUP5 DUP3 DUP6 ADD PUSH2 0x34F JUMP JUMPDEST SWAP2 POP POP SWAP3 SWAP2 POP POP JUMP JUMPDEST PUSH0 DUP2 MLOAD SWAP1 POP SWAP2 SWAP1 POP JUMP JUMPDEST PUSH0 DUP3 DUP3 MSTORE PUSH1 0x20 DUP3 ADD SWAP1 POP SWAP3 SWAP2 POP POP JUMP JUMPDEST DUP3 DUP2 DUP4 MCOPY PUSH0 DUP4 DUP4 ADD MSTORE POP POP POP JUMP JUMPDEST PUSH0 PUSH1 0x1F NOT PUSH1 0x1F DUP4 ADD AND SWAP1 POP SWAP2 SWAP1 POP JUMP JUMPDEST PUSH0 PUSH2 0x3D0 DUP3 PUSH2 0x38E JUMP JUMPDEST PUSH2 0x3DA DUP2 DUP6 PUSH2 0x398 JUMP JUMPDEST SWAP4 POP PUSH2 0x3EA DUP2 DUP6 PUSH1 0x20 DUP7 ADD PUSH2 0x3A8 JUMP JUMPDEST PUSH2 0x3F3 DUP2 PUSH2 0x3B6 JUMP JUMPDEST DUP5 ADD SWAP2 POP POP SWAP3 SWAP2 POP POP JUMP JUMPDEST PUSH0 PUSH1 0x40 DUP3 ADD SWAP1 POP DUP2 DUP2 SUB PUSH0 DUP4 ADD MSTORE PUSH2 0x416 DUP2 DUP6 PUSH2 0x3C6 JUMP JUMPDEST SWAP1 POP PUSH2 0x425 PUSH1 0x20 DUP4 ADD DUP5 PUSH2 0x30D JUMP JUMPDEST SWAP4 SWAP3 POP POP POP JUMP JUMPDEST PUSH32 0x4E487B7100000000000000000000000000000000000000000000000000000000 PUSH0 MSTORE PUSH1 0x21 PUSH1 0x4 MSTORE PUSH1 0x24 PUSH0 REVERT JUMPDEST PUSH1 0x2 DUP2 LT PUSH2 0x46A JUMPI PUSH2 0x469 PUSH2 0x42C JUMP JUMPDEST JUMPDEST POP JUMP JUMPDEST PUSH0 DUP2 SWAP1 POP PUSH2 0x47A DUP3 PUSH2 0x459 JUMP JUMPDEST SWAP2 SWAP1 POP JUMP JUMPDEST PUSH0 PUSH2 0x489 DUP3 PUSH2 0x46D JUMP JUMPDEST SWAP1 POP SWAP2 SWAP1 POP JUMP JUMPDEST PUSH2 0x499 DUP2 PUSH2 0x47F JUMP JUMPDEST DUP3 MSTORE POP POP JUMP JUMPDEST PUSH0 PUSH1 0x20 DUP3 ADD SWAP1 POP PUSH2 0x4B2 PUSH0 DUP4 ADD DUP5 PUSH2 0x490 JUMP JUMPDEST SWAP3 SWAP2 POP POP JUMP JUMPDEST PUSH0 DUP2 ISZERO ISZERO SWAP1 POP SWAP2 SWAP1 POP JUMP JUMPDEST PUSH2 0x4CC DUP2 PUSH2 0x4B8 JUMP JUMPDEST DUP3 MSTORE POP POP JUMP JUMPDEST PUSH0 PUSH1 0x20 DUP3 ADD SWAP1 POP PUSH2 0x4E5 PUSH0 DUP4 ADD DUP5 PUSH2 0x4C3 JUMP JUMPDEST SWAP3 SWAP2 POP POP JUMP JUMPDEST PUSH32 0x4E487B7100000000000000000000000000000000000000000000000000000000 PUSH0 MSTORE PUSH1 0x11 PUSH1 0x4 MSTORE PUSH1 0x24 PUSH0 REVERT JUMPDEST PUSH0 PUSH2 0x522 DUP3 PUSH2 0x304 JUMP JUMPDEST SWAP2 POP PUSH2 0x52D DUP4 PUSH2 0x304 JUMP JUMPDEST SWAP3 POP DUP3 DUP3 ADD SWAP1 POP DUP1 DUP3 GT ISZERO PUSH2 0x545 JUMPI PUSH2 0x544 PUSH2 0x4EB JUMP JUMPDEST JUMPDEST SWAP3 SWAP2 POP POP JUMP JUMPDEST PUSH0 PUSH2 0x555 DUP3 PUSH2 0x304 JUMP JUMPDEST SWAP2 POP PUSH32 0xFFFFFFFFFFFFFFFFFFFFFFFFFFFFFFFFFFFFFFFFFFFFFFFFFFFFFFFFFFFFFFFF DUP3 SUB PUSH2 0x587 JUMPI PUSH2 0x586 PUSH2 0x4EB JUMP JUMPDEST JUMPDEST PUSH1 0x1 DUP3 ADD SWAP1 POP SWAP2 SWAP1 POP JUMP JUMPDEST PUSH32 0x4E487B7100000000000000000000000000000000000000000000000000000000 PUSH0 MSTORE PUSH1 0x22 PUSH1 0x4 MSTORE PUSH1 0x24 PUSH0 REVERT JUMPDEST PUSH0 PUSH1 0x2 DUP3 DIV SWAP1 POP PUSH1 0x1 DUP3 AND DUP1 PUSH2 0x5D6 JUMPI PUSH1 0x7F DUP3 AND SWAP2 POP JUMPDEST PUSH1 0x20 DUP3 LT DUP2 SUB PUSH2 0x5E9 JUMPI PUSH2 0x5E8 PUSH2 0x592 JUMP JUMPDEST JUMPDEST POP SWAP2 SWAP1 POP JUMP INVALID LOG2 PUSH5 0x6970667358 0x22 SLT KECCAK256 0xFC 0xF7 SHL 0xCD SWAP7 CALL 0x2A 0x2F SUB BALANCE TSTORE GAS GAS 0xA6 PUSH19 0x6867C4A0BD42F1D90F202CBD61F20397EA6473 PUSH16 0x6C634300081900330000000000000000 "
		},
		"gasEstimates": {
			"creation": {
				"codeDepositCost": "314600",
				"executionCost": "353",
				"totalCost": "314953"
			},
			"external": {
				"favoriteNumber()": "2469",
				"favoriteNumbers(uint256)": "infinite",
				"getFavoriteNumber()": "2432",
				"isGreaterThan(uint256)": "2801",
				"people(uint256)": "infinite",
				"state()": "2598",
				"storeNumber(uint256)": "22536",
				"sumToFavoriteNumber()": "infinite"
			}
		},
		"methodIdentifiers": {
			"favoriteNumber()": "471f7cdf",
			"favoriteNumbers(uint256)": "29cd1d96",
			"getFavoriteNumber()": "a621d15e",
			"isGreaterThan(uint256)": "cb6a33f8",
			"people(uint256)": "9e7a13ad",
			"state()": "c19d93fb",
			"storeNumber(uint256)": "b6339418",
			"sumToFavoriteNumber()": "0cd2636e"
		}
	},
	"abi": [
		{
			"inputs": [],
			"name": "favoriteNumber",
			"outputs": [
				{
					"internalType": "uint256",
					"name": "",
					"type": "uint256"
				}
			],
			"stateMutability": "view",
			"type": "function"
		},
		{
			"inputs": [
				{
					"internalType": "uint256",
					"name": "",
					"type": "uint256"
				}
			],
			"name": "favoriteNumbers",
			"outputs": [
				{
					"internalType": "uint256",
					"name": "",
					"type": "uint256"
				}
			],
			"stateMutability": "view",
			"type": "function"
		},
		{
			"inputs": [],
			"name": "getFavoriteNumber",
			"outputs": [
				{
					"internalType": "uint256",
					"name": "",
					"type": "uint256"
				}
			],
			"stateMutability": "view",
			"type": "function"
		},
		{
			"inputs": [
				{
					"internalType": "uint256",
					"name": "_compareValue",
					"type": "uint256"
				}
			],
			"name": "isGreaterThan",
			"outputs": [
				{
					"internalType": "bool",
					"name": "",
					"type": "bool"
				}
			],
			"stateMutability": "view",
			"type": "function"
		},
		{
			"inputs": [
				{
					"internalType": "uint256",
					"name": "",
					"type": "uint256"
				}
			],
			"name": "people",
			"outputs": [
				{
					"internalType": "string",
					"name": "name",
					"type": "string"
				},
				{
					"internalType": "uint256",
					"name": "favoriteNumber",
					"type": "uint256"
				}
			],
			"stateMutability": "view",
			"type": "function"
		},
		{
			"inputs": [],
			"name": "state",
			"outputs": [
				{
					"internalType": "enum SimpleStorage.ContractState",
					"name": "",
					"type": "uint8"
				}
			],
			"stateMutability": "view",
			"type": "function"
		},
		{
			"inputs": [
				{
					"internalType": "uint256",
					"name": "_favoriteNumber",
					"type": "uint256"
				}
			],
			"name": "storeNumber",
			"outputs": [],
			"stateMutability": "nonpayable",
			"type": "function"
		},
		{
			"inputs": [],
			"name": "sumToFavoriteNumber",
			"outputs": [
				{
					"internalType": "uint256",
					"name": "",
					"type": "uint256"
				}
			],
			"stateMutability": "view",
			"type": "function"
		}
	]
}